{
  "_format": "hh-sol-artifact-1",
  "contractName": "MyEpicNFT",
  "sourceName": "contracts/MyEpicNFT.sol",
  "abi": [
    {
      "inputs": [],
      "stateMutability": "nonpayable",
      "type": "constructor"
    },
    {
      "anonymous": false,
      "inputs": [
        {
          "indexed": true,
          "internalType": "address",
          "name": "owner",
          "type": "address"
        },
        {
          "indexed": true,
          "internalType": "address",
          "name": "approved",
          "type": "address"
        },
        {
          "indexed": true,
          "internalType": "uint256",
          "name": "tokenId",
          "type": "uint256"
        }
      ],
      "name": "Approval",
      "type": "event"
    },
    {
      "anonymous": false,
      "inputs": [
        {
          "indexed": true,
          "internalType": "address",
          "name": "owner",
          "type": "address"
        },
        {
          "indexed": true,
          "internalType": "address",
          "name": "operator",
          "type": "address"
        },
        {
          "indexed": false,
          "internalType": "bool",
          "name": "approved",
          "type": "bool"
        }
      ],
      "name": "ApprovalForAll",
      "type": "event"
    },
    {
      "anonymous": false,
      "inputs": [
        {
          "indexed": false,
          "internalType": "address",
          "name": "sender",
          "type": "address"
        },
        {
          "indexed": false,
          "internalType": "uint256",
          "name": "tokenId",
          "type": "uint256"
        }
      ],
      "name": "NewEpicNFTMinted",
      "type": "event"
    },
    {
      "anonymous": false,
      "inputs": [
        {
          "indexed": true,
          "internalType": "address",
          "name": "from",
          "type": "address"
        },
        {
          "indexed": true,
          "internalType": "address",
          "name": "to",
          "type": "address"
        },
        {
          "indexed": true,
          "internalType": "uint256",
          "name": "tokenId",
          "type": "uint256"
        }
      ],
      "name": "Transfer",
      "type": "event"
    },
    {
      "inputs": [],
      "name": "NFT_MINT_LIMIT",
      "outputs": [
        {
          "internalType": "uint8",
          "name": "",
          "type": "uint8"
        }
      ],
      "stateMutability": "view",
      "type": "function"
    },
    {
      "inputs": [
        {
          "internalType": "address",
          "name": "to",
          "type": "address"
        },
        {
          "internalType": "uint256",
          "name": "tokenId",
          "type": "uint256"
        }
      ],
      "name": "approve",
      "outputs": [],
      "stateMutability": "nonpayable",
      "type": "function"
    },
    {
      "inputs": [
        {
          "internalType": "address",
          "name": "owner",
          "type": "address"
        }
      ],
      "name": "balanceOf",
      "outputs": [
        {
          "internalType": "uint256",
          "name": "",
          "type": "uint256"
        }
      ],
      "stateMutability": "view",
      "type": "function"
    },
    {
      "inputs": [
        {
          "internalType": "uint256",
          "name": "tokenId",
          "type": "uint256"
        }
      ],
      "name": "getApproved",
      "outputs": [
        {
          "internalType": "address",
          "name": "",
          "type": "address"
        }
      ],
      "stateMutability": "view",
      "type": "function"
    },
    {
      "inputs": [],
      "name": "getNFTCount",
      "outputs": [
        {
          "internalType": "uint256",
          "name": "totalNFTsMinted",
          "type": "uint256"
        }
      ],
      "stateMutability": "view",
      "type": "function"
    },
    {
      "inputs": [],
      "name": "getNFTLimit",
      "outputs": [
        {
          "internalType": "uint8",
          "name": "",
          "type": "uint8"
        }
      ],
      "stateMutability": "pure",
      "type": "function"
    },
    {
      "inputs": [
        {
          "internalType": "address",
          "name": "owner",
          "type": "address"
        },
        {
          "internalType": "address",
          "name": "operator",
          "type": "address"
        }
      ],
      "name": "isApprovedForAll",
      "outputs": [
        {
          "internalType": "bool",
          "name": "",
          "type": "bool"
        }
      ],
      "stateMutability": "view",
      "type": "function"
    },
    {
      "inputs": [],
      "name": "makeAnEpicNFT",
      "outputs": [],
      "stateMutability": "nonpayable",
      "type": "function"
    },
    {
      "inputs": [],
      "name": "name",
      "outputs": [
        {
          "internalType": "string",
          "name": "",
          "type": "string"
        }
      ],
      "stateMutability": "view",
      "type": "function"
    },
    {
      "inputs": [
        {
          "internalType": "uint256",
          "name": "tokenId",
          "type": "uint256"
        }
      ],
      "name": "ownerOf",
      "outputs": [
        {
          "internalType": "address",
          "name": "",
          "type": "address"
        }
      ],
      "stateMutability": "view",
      "type": "function"
    },
    {
      "inputs": [
        {
          "internalType": "uint256",
          "name": "tokenId",
          "type": "uint256"
        }
      ],
      "name": "pickRandomColor",
      "outputs": [
        {
          "internalType": "string",
          "name": "",
          "type": "string"
        }
      ],
      "stateMutability": "view",
      "type": "function"
    },
    {
      "inputs": [
        {
          "internalType": "uint256",
          "name": "tokenId",
          "type": "uint256"
        }
      ],
      "name": "pickRandomFirstWord",
      "outputs": [
        {
          "internalType": "string",
          "name": "",
          "type": "string"
        }
      ],
      "stateMutability": "view",
      "type": "function"
    },
    {
      "inputs": [
        {
          "internalType": "uint256",
          "name": "tokenId",
          "type": "uint256"
        }
      ],
      "name": "pickRandomSecondWord",
      "outputs": [
        {
          "internalType": "string",
          "name": "",
          "type": "string"
        }
      ],
      "stateMutability": "view",
      "type": "function"
    },
    {
      "inputs": [
        {
          "internalType": "uint256",
          "name": "tokenId",
          "type": "uint256"
        }
      ],
      "name": "pickRandomThirdWord",
      "outputs": [
        {
          "internalType": "string",
          "name": "",
          "type": "string"
        }
      ],
      "stateMutability": "view",
      "type": "function"
    },
    {
      "inputs": [
        {
          "internalType": "address",
          "name": "from",
          "type": "address"
        },
        {
          "internalType": "address",
          "name": "to",
          "type": "address"
        },
        {
          "internalType": "uint256",
          "name": "tokenId",
          "type": "uint256"
        }
      ],
      "name": "safeTransferFrom",
      "outputs": [],
      "stateMutability": "nonpayable",
      "type": "function"
    },
    {
      "inputs": [
        {
          "internalType": "address",
          "name": "from",
          "type": "address"
        },
        {
          "internalType": "address",
          "name": "to",
          "type": "address"
        },
        {
          "internalType": "uint256",
          "name": "tokenId",
          "type": "uint256"
        },
        {
          "internalType": "bytes",
          "name": "_data",
          "type": "bytes"
        }
      ],
      "name": "safeTransferFrom",
      "outputs": [],
      "stateMutability": "nonpayable",
      "type": "function"
    },
    {
      "inputs": [
        {
          "internalType": "address",
          "name": "operator",
          "type": "address"
        },
        {
          "internalType": "bool",
          "name": "approved",
          "type": "bool"
        }
      ],
      "name": "setApprovalForAll",
      "outputs": [],
      "stateMutability": "nonpayable",
      "type": "function"
    },
    {
      "inputs": [
        {
          "internalType": "bytes4",
          "name": "interfaceId",
          "type": "bytes4"
        }
      ],
      "name": "supportsInterface",
      "outputs": [
        {
          "internalType": "bool",
          "name": "",
          "type": "bool"
        }
      ],
      "stateMutability": "view",
      "type": "function"
    },
    {
      "inputs": [],
      "name": "symbol",
      "outputs": [
        {
          "internalType": "string",
          "name": "",
          "type": "string"
        }
      ],
      "stateMutability": "view",
      "type": "function"
    },
    {
      "inputs": [
        {
          "internalType": "uint256",
          "name": "tokenId",
          "type": "uint256"
        }
      ],
      "name": "tokenURI",
      "outputs": [
        {
          "internalType": "string",
          "name": "",
          "type": "string"
        }
      ],
      "stateMutability": "view",
      "type": "function"
    },
    {
      "inputs": [
        {
          "internalType": "address",
          "name": "from",
          "type": "address"
        },
        {
          "internalType": "address",
          "name": "to",
          "type": "address"
        },
        {
          "internalType": "uint256",
          "name": "tokenId",
          "type": "uint256"
        }
      ],
      "name": "transferFrom",
      "outputs": [],
      "stateMutability": "nonpayable",
      "type": "function"
    }
  ],
  "bytecode": "0x60806040526040518061024001604052806040518060400160405280600781526020017f4e6f20537461720000000000000000000000000000000000000000000000000081525081526020016040518060400160405280600681526020017f312053746172000000000000000000000000000000000000000000000000000081525081526020016040518060400160405280600681526020017f322053746172000000000000000000000000000000000000000000000000000081525081526020016040518060400160405280600781526020017f332020537461720000000000000000000000000000000000000000000000000081525081526020016040518060400160405280600681526020017f342053746172000000000000000000000000000000000000000000000000000081525081526020016040518060400160405280600681526020017f352053746172000000000000000000000000000000000000000000000000000081525081526020016040518060400160405280600681526020017f362053746172000000000000000000000000000000000000000000000000000081525081526020016040518060400160405280600681526020017f372053746172000000000000000000000000000000000000000000000000000081525081526020016040518060400160405280600a81526020017f547261736820546965720000000000000000000000000000000000000000000081525081526020016040518060400160405280600c81526020017f476172626167652054696572000000000000000000000000000000000000000081525081526020016040518060400160405280600d81526020017f537570657220417665726167650000000000000000000000000000000000000081525081526020016040518060400160405280600881526020017f476f64204c696b6500000000000000000000000000000000000000000000000081525081526020016040518060400160405280600481526020017f446561640000000000000000000000000000000000000000000000000000000081525081526020016040518060400160405280600781526020017f556e6479696e670000000000000000000000000000000000000000000000000081525081526020016040518060400160405280600c81526020017f496d706f7665726973686564000000000000000000000000000000000000000081525081526020016040518060400160405280600981526020017f4d696e696174757265000000000000000000000000000000000000000000000081525081526020016040518060400160405280600a81526020017f47726f76656c6c696e670000000000000000000000000000000000000000000081525081526020016040518060400160405280600781526020017f506572666563740000000000000000000000000000000000000000000000000081525081525060089060126200044692919062001051565b506040518061028001604052806040518060400160405280600781526020017f4a616e69746f720000000000000000000000000000000000000000000000000081525081526020016040518060400160405280600d81526020017f43616e6e6f6e20466f646465720000000000000000000000000000000000000081525081526020016040518060400160405280600781526020017f47656e6572616c0000000000000000000000000000000000000000000000000081525081526020016040518060400160405280600781526020017f507269766174650000000000000000000000000000000000000000000000000081525081526020016040518060400160405280600781526020017f436f6e766963740000000000000000000000000000000000000000000000000081525081526020016040518060400160405280600781526020017f426172697374610000000000000000000000000000000000000000000000000081525081526020016040518060400160405280600981526020017f42617274656e646572000000000000000000000000000000000000000000000081525081526020016040518060400160405280600981526020017f436f6e717565726572000000000000000000000000000000000000000000000081525081526020016040518060400160405280600b81526020017f4576696c204c656164657200000000000000000000000000000000000000000081525081526020016040518060400160405280600881526020017f537472697070657200000000000000000000000000000000000000000000000081525081526020016040518060400160405280600981526020017f536563726574617279000000000000000000000000000000000000000000000081525081526020016040518060400160405280600781526020017f43756c746973740000000000000000000000000000000000000000000000000081525081526020016040518060400160405280600881526020017f4472756e6b61726400000000000000000000000000000000000000000000000081525081526020016040518060400160405280600881526020017f4f7665726c6f726400000000000000000000000000000000000000000000000081525081526020016040518060400160405280600881526020017f496d706f7374657200000000000000000000000000000000000000000000000081525081526020016040518060400160405280600681526020017f536176696f72000000000000000000000000000000000000000000000000000081525081526020016040518060400160405280600f81526020017f48756d616e69747920536c61796572000000000000000000000000000000000081525081526020016040518060400160405280600481526020017f436865660000000000000000000000000000000000000000000000000000000081525081526020016040518060400160405280600d81526020017f46616e666963205772697465720000000000000000000000000000000000000081525081526020016040518060400160405280600e81526020017f42757267657220466c69707065720000000000000000000000000000000000008152508152506009906014620008ff929190620010b8565b506040518061022001604052806040518060400160405280600981526020017f456c6f6e204d75736b000000000000000000000000000000000000000000000081525081526020016040518060400160405280600a81526020017f4a6566662042657a6f730000000000000000000000000000000000000000000081525081526020016040518060400160405280600581526020017f4f7072616800000000000000000000000000000000000000000000000000000081525081526020016040518060400160405280600f81526020017f48696c6c61727920436c696e746f6e000000000000000000000000000000000081525081526020016040518060400160405280600781526020017f4265796f6e63650000000000000000000000000000000000000000000000000081525081526020016040518060400160405280600d81526020017f416e67656c61204d65726b656c0000000000000000000000000000000000000081525081526020016040518060400160405280600d81526020017f4b616d616c61204861727269730000000000000000000000000000000000000081525081526020016040518060400160405280600c81526020017f4e616e63792050656c6f7369000000000000000000000000000000000000000081525081526020016040518060400160405280600d81526020017f53756e646172205069636861690000000000000000000000000000000000000081525081526020016040518060400160405280600f81526020017f4d61726b205a75636b657262657267000000000000000000000000000000000081525081526020016040518060400160405280600c81526020017f446f6e616c64205472756d70000000000000000000000000000000000000000081525081526020016040518060400160405280600c81526020017f42617261636b204f62616d61000000000000000000000000000000000000000081525081526020016040518060400160405280600b81526020017f4469636b204368656e657900000000000000000000000000000000000000000081525081526020016040518060400160405280600b81526020017f4b696d204a6f6e672d696c00000000000000000000000000000000000000000081525081526020016040518060400160405280600b81526020017f4b696d204a6f6e672d756e00000000000000000000000000000000000000000081525081526020016040518060400160405280600a81526020017f42696c6c2047617465730000000000000000000000000000000000000000000081525081526020016040518060400160405280600a81526020017f5374657665204a6f627300000000000000000000000000000000000000000000815250815250600a90601162000d079291906200111f565b506040518060c001604052806040518060400160405280600781526020017f234645303031410000000000000000000000000000000000000000000000000081525081526020016040518060400160405280600781526020017f233144413146320000000000000000000000000000000000000000000000000081525081526020016040518060400160405280600781526020017f233235443336360000000000000000000000000000000000000000000000000081525081526020016040518060400160405280600781526020017f234646303042460000000000000000000000000000000000000000000000000081525081526020016040518060400160405280600781526020017f234646464330300000000000000000000000000000000000000000000000000081525081526020016040518060400160405280600781526020017f2330303030303000000000000000000000000000000000000000000000000000815250815250600b90600662000e8592919062001186565b5034801562000e9357600080fd5b506040518060400160405280600981526020017f50656f706c654e465400000000000000000000000000000000000000000000008152506040518060400160405280600381526020017f50504c0000000000000000000000000000000000000000000000000000000000815250816000908051906020019062000f18929190620011ed565b50806001908051906020019062000f31929190620011ed565b50505062000f7f6040518060400160405280601281526020017f42657474657220636f6e7472616374203a29000000000000000000000000000081525062000f8560201b620014e51760201c565b62001438565b620010258160405160240162000f9c91906200134c565b6040516020818303038152906040527f41304fac000000000000000000000000000000000000000000000000000000007bffffffffffffffffffffffffffffffffffffffffffffffffffffffff19166020820180517bffffffffffffffffffffffffffffffffffffffffffffffffffffffff83818316178352505050506200102860201b60201c565b50565b60008151905060006a636f6e736f6c652e6c6f679050602083016000808483855afa5050505050565b828054828255906000526020600020908101928215620010a5579160200282015b82811115620010a457825182908051906020019062001093929190620011ed565b509160200191906001019062001072565b5b509050620010b491906200127e565b5090565b8280548282559060005260206000209081019282156200110c579160200282015b828111156200110b578251829080519060200190620010fa929190620011ed565b5091602001919060010190620010d9565b5b5090506200111b91906200127e565b5090565b82805482825590600052602060002090810192821562001173579160200282015b828111156200117257825182908051906020019062001161929190620011ed565b509160200191906001019062001140565b5b5090506200118291906200127e565b5090565b828054828255906000526020600020908101928215620011da579160200282015b82811115620011d9578251829080519060200190620011c8929190620011ed565b5091602001919060010190620011a7565b5b509050620011e991906200127e565b5090565b828054620011fb90620013c2565b90600052602060002090601f0160209004810192826200121f57600085556200126b565b82601f106200123a57805160ff19168380011785556200126b565b828001600101855582156200126b579182015b828111156200126a5782518255916020019190600101906200124d565b5b5090506200127a9190620012a6565b5090565b5b80821115620012a25760008181620012989190620012c5565b506001016200127f565b5090565b5b80821115620012c1576000816000905550600101620012a7565b5090565b508054620012d390620013c2565b6000825580601f10620012e7575062001308565b601f016020900490600052602060002090810190620013079190620012a6565b5b50565b6000620013188262001370565b6200132481856200137b565b9350620013368185602086016200138c565b620013418162001427565b840191505092915050565b600060208201905081810360008301526200136881846200130b565b905092915050565b600081519050919050565b600082825260208201905092915050565b60005b83811015620013ac5780820151818401526020810190506200138f565b83811115620013bc576000848401525b50505050565b60006002820490506001821680620013db57607f821691505b60208210811415620013f257620013f1620013f8565b5b50919050565b7f4e487b7100000000000000000000000000000000000000000000000000000000600052602260045260246000fd5b6000601f19601f8301169050919050565b613e5680620014486000396000f3fe608060405234801561001057600080fd5b50600436106101375760003560e01c806370a08231116100b8578063b88d4fde1161007c578063b88d4fde14610374578063c575757a14610390578063c8481ee1146103c0578063c87b56dd146103de578063de9d132f1461040e578063e985e9c51461041857610137565b806370a08231146102bc57806395d89b41146102ec5780639ad0f00b1461030a578063a22cb46514610328578063b187301f1461034457610137565b80632de38d68116100ff5780632de38d68146101f257806342842e0e14610222578063514dc8c61461023e578063542796371461026e5780636352211e1461028c57610137565b806301ffc9a71461013c57806306fdde031461016c578063081812fc1461018a578063095ea7b3146101ba57806323b872dd146101d6575b600080fd5b61015660048036038101906101519190612778565b610448565b60405161016391906134bc565b60405180910390f35b61017461052a565b60405161018191906134d7565b60405180910390f35b6101a4600480360381019061019f91906127ca565b6105bc565b6040516101b1919061342c565b60405180910390f35b6101d460048036038101906101cf919061273c565b610641565b005b6101f060048036038101906101eb9190612636565b610759565b005b61020c600480360381019061020791906127ca565b6107b9565b60405161021991906134d7565b60405180910390f35b61023c60048036038101906102379190612636565b6108d7565b005b610258600480360381019061025391906127ca565b6108f7565b60405161026591906134d7565b60405180910390f35b610276610a15565b6040516102839190613757565b60405180910390f35b6102a660048036038101906102a191906127ca565b610a26565b6040516102b3919061342c565b60405180910390f35b6102d660048036038101906102d191906125d1565b610ad8565b6040516102e39190613757565b60405180910390f35b6102f4610b90565b60405161030191906134d7565b60405180910390f35b610312610c22565b60405161031f9190613772565b60405180910390f35b610342600480360381019061033d9190612700565b610c2b565b005b61035e600480360381019061035991906127ca565b610dac565b60405161036b91906134d7565b60405180910390f35b61038e60048036038101906103899190612685565b610eca565b005b6103aa60048036038101906103a591906127ca565b610f2c565b6040516103b791906134d7565b60405180910390f35b6103c861104a565b6040516103d59190613772565b60405180910390f35b6103f860048036038101906103f391906127ca565b61104f565b60405161040591906134d7565b60405180910390f35b6104166111a1565b005b610432600480360381019061042d91906125fa565b611451565b60405161043f91906134bc565b60405180910390f35b60007f80ac58cd000000000000000000000000000000000000000000000000000000007bffffffffffffffffffffffffffffffffffffffffffffffffffffffff1916827bffffffffffffffffffffffffffffffffffffffffffffffffffffffff1916148061051357507f5b5e139f000000000000000000000000000000000000000000000000000000007bffffffffffffffffffffffffffffffffffffffffffffffffffffffff1916827bffffffffffffffffffffffffffffffffffffffffffffffffffffffff1916145b8061052357506105228261157e565b5b9050919050565b60606000805461053990613a09565b80601f016020809104026020016040519081016040528092919081815260200182805461056590613a09565b80156105b25780601f10610587576101008083540402835291602001916105b2565b820191906000526020600020905b81548152906001019060200180831161059557829003601f168201915b5050505050905090565b60006105c7826115e8565b610606576040517f08c379a00000000000000000000000000000000000000000000000000000000081526004016105fd906136b7565b60405180910390fd5b6004600083815260200190815260200160002060009054906101000a900473ffffffffffffffffffffffffffffffffffffffff169050919050565b600061064c82610a26565b90508073ffffffffffffffffffffffffffffffffffffffff168373ffffffffffffffffffffffffffffffffffffffff1614156106bd576040517f08c379a00000000000000000000000000000000000000000000000000000000081526004016106b490613717565b60405180910390fd5b8073ffffffffffffffffffffffffffffffffffffffff166106dc611654565b73ffffffffffffffffffffffffffffffffffffffff16148061070b575061070a81610705611654565b611451565b5b61074a576040517f08c379a0000000000000000000000000000000000000000000000000000000008152600401610741906135f7565b60405180910390fd5b610754838361165c565b505050565b61076a610764611654565b82611715565b6107a9576040517f08c379a00000000000000000000000000000000000000000000000000000000081526004016107a090613737565b60405180910390fd5b6107b48383836117f3565b505050565b606060006107ed6107c984611a4f565b6040516020016107d991906133c6565b604051602081830303815290604052611bfc565b9050600880549050816108009190613a84565b90506008818154811061083c577f4e487b7100000000000000000000000000000000000000000000000000000000600052603260045260246000fd5b90600052602060002001805461085190613a09565b80601f016020809104026020016040519081016040528092919081815260200182805461087d90613a09565b80156108ca5780601f1061089f576101008083540402835291602001916108ca565b820191906000526020600020905b8154815290600101906020018083116108ad57829003601f168201915b5050505050915050919050565b6108f283838360405180602001604052806000815250610eca565b505050565b6060600061092b61090784611a4f565b604051602001610917919061340a565b604051602081830303815290604052611bfc565b9050600b805490508161093e9190613a84565b9050600b818154811061097a577f4e487b7100000000000000000000000000000000000000000000000000000000600052603260045260246000fd5b90600052602060002001805461098f90613a09565b80601f01602080910402602001604051908101604052809291908181526020018280546109bb90613a09565b8015610a085780601f106109dd57610100808354040283529160200191610a08565b820191906000526020600020905b8154815290600101906020018083116109eb57829003601f168201915b5050505050915050919050565b6000610a216007611c2f565b905090565b6000806002600084815260200190815260200160002060009054906101000a900473ffffffffffffffffffffffffffffffffffffffff169050600073ffffffffffffffffffffffffffffffffffffffff168173ffffffffffffffffffffffffffffffffffffffff161415610acf576040517f08c379a0000000000000000000000000000000000000000000000000000000008152600401610ac690613637565b60405180910390fd5b80915050919050565b60008073ffffffffffffffffffffffffffffffffffffffff168273ffffffffffffffffffffffffffffffffffffffff161415610b49576040517f08c379a0000000000000000000000000000000000000000000000000000000008152600401610b4090613617565b60405180910390fd5b600360008373ffffffffffffffffffffffffffffffffffffffff1673ffffffffffffffffffffffffffffffffffffffff168152602001908152602001600020549050919050565b606060018054610b9f90613a09565b80601f0160208091040260200160405190810160405280929190818152602001828054610bcb90613a09565b8015610c185780601f10610bed57610100808354040283529160200191610c18565b820191906000526020600020905b815481529060010190602001808311610bfb57829003601f168201915b5050505050905090565b60006046905090565b610c33611654565b73ffffffffffffffffffffffffffffffffffffffff168273ffffffffffffffffffffffffffffffffffffffff161415610ca1576040517f08c379a0000000000000000000000000000000000000000000000000000000008152600401610c9890613597565b60405180910390fd5b8060056000610cae611654565b73ffffffffffffffffffffffffffffffffffffffff1673ffffffffffffffffffffffffffffffffffffffff16815260200190815260200160002060008473ffffffffffffffffffffffffffffffffffffffff1673ffffffffffffffffffffffffffffffffffffffff16815260200190815260200160002060006101000a81548160ff0219169083151502179055508173ffffffffffffffffffffffffffffffffffffffff16610d5b611654565b73ffffffffffffffffffffffffffffffffffffffff167f17307eab39ab6107e8899845ad3d59bd9653f200f220920489ca2b5937696c3183604051610da091906134bc565b60405180910390a35050565b60606000610de0610dbc84611a4f565b604051602001610dcc919061335f565b604051602081830303815290604052611bfc565b905060098054905081610df39190613a84565b905060098181548110610e2f577f4e487b7100000000000000000000000000000000000000000000000000000000600052603260045260246000fd5b906000526020600020018054610e4490613a09565b80601f0160208091040260200160405190810160405280929190818152602001828054610e7090613a09565b8015610ebd5780601f10610e9257610100808354040283529160200191610ebd565b820191906000526020600020905b815481529060010190602001808311610ea057829003601f168201915b5050505050915050919050565b610edb610ed5611654565b83611715565b610f1a576040517f08c379a0000000000000000000000000000000000000000000000000000000008152600401610f1190613737565b60405180910390fd5b610f2684848484611c3d565b50505050565b60606000610f60610f3c84611a4f565b604051602001610f4c919061333d565b604051602081830303815290604052611bfc565b9050600a8054905081610f739190613a84565b9050600a8181548110610faf577f4e487b7100000000000000000000000000000000000000000000000000000000600052603260045260246000fd5b906000526020600020018054610fc490613a09565b80601f0160208091040260200160405190810160405280929190818152602001828054610ff090613a09565b801561103d5780601f106110125761010080835404028352916020019161103d565b820191906000526020600020905b81548152906001019060200180831161102057829003601f168201915b5050505050915050919050565b604681565b606061105a826115e8565b611099576040517f08c379a000000000000000000000000000000000000000000000000000000000815260040161109090613697565b60405180910390fd5b60006006600084815260200190815260200160002080546110b990613a09565b80601f01602080910402602001604051908101604052809291908181526020018280546110e590613a09565b80156111325780601f1061110757610100808354040283529160200191611132565b820191906000526020600020905b81548152906001019060200180831161111557829003601f168201915b505050505090506000611143611c99565b905060008151141561115957819250505061119c565b60008251111561118e578082604051602001611176929190613255565b6040516020818303038152906040529250505061119c565b61119784611cb0565b925050505b919050565b60006111ad6007611c2f565b9050604660ff1681106111f5576040517f08c379a00000000000000000000000000000000000000000000000000000000081526004016111ec906135b7565b60405180910390fd5b6000611200826107b9565b9050600061120d83610dac565b9050600061121a84610f2c565b90506000838383604051602001611233939291906132f6565b6040516020818303038152906040529050600061124f866108f7565b9050600060405180610100016040528060d38152602001613c5a60d3913982604051806080016040528060568152602001613bdf60569139886040518060800160405280605a8152602001613d6d605a9139896040518060800160405280605a8152602001613dc7605a91398a6040516020016112d3989796959493929190613279565b60405160208183030381529060405290506000611318846112f384611d57565b604051602001611304929190613381565b604051602081830303815290604052611d57565b9050611323816114e5565b60008160405160200161133691906133e8565b60405160208183030381529060405290506113856040518060400160405280601b81526020017f0a2d2d2d2d2d2d2d2d2d2d2d2d2d2d2d2d2d2d2d2d2d2d2d2d2d2d00000000008152506114e5565b61138e816114e5565b6113cc6040518060400160405280601b81526020017f2d2d2d2d2d2d2d2d2d2d2d2d2d2d2d2d2d2d2d2d2d2d2d2d2d2d0a00000000008152506114e5565b6113d6338a611f15565b6113e08982611f33565b6113ea6007611fa7565b7febb98688741ffa4c7589bf325de30cf7becb63de567842e1ccdb6cb949fdc82c338a60405161141b929190613493565b60405180910390a1611446604051806060016040528060258152602001613c35602591398a33611fbd565b505050505050505050565b6000600560008473ffffffffffffffffffffffffffffffffffffffff1673ffffffffffffffffffffffffffffffffffffffff16815260200190815260200160002060008373ffffffffffffffffffffffffffffffffffffffff1673ffffffffffffffffffffffffffffffffffffffff16815260200190815260200160002060009054906101000a900460ff16905092915050565b61157b816040516024016114f991906134d7565b6040516020818303038152906040527f41304fac000000000000000000000000000000000000000000000000000000007bffffffffffffffffffffffffffffffffffffffffffffffffffffffff19166020820180517bffffffffffffffffffffffffffffffffffffffffffffffffffffffff838183161783525050505061205c565b50565b60007f01ffc9a7000000000000000000000000000000000000000000000000000000007bffffffffffffffffffffffffffffffffffffffffffffffffffffffff1916827bffffffffffffffffffffffffffffffffffffffffffffffffffffffff1916149050919050565b60008073ffffffffffffffffffffffffffffffffffffffff166002600084815260200190815260200160002060009054906101000a900473ffffffffffffffffffffffffffffffffffffffff1673ffffffffffffffffffffffffffffffffffffffff1614159050919050565b600033905090565b816004600083815260200190815260200160002060006101000a81548173ffffffffffffffffffffffffffffffffffffffff021916908373ffffffffffffffffffffffffffffffffffffffff160217905550808273ffffffffffffffffffffffffffffffffffffffff166116cf83610a26565b73ffffffffffffffffffffffffffffffffffffffff167f8c5be1e5ebec7d5bd14f71427d1e84f3dd0314c0f7b2291e5b200ac8c7c3b92560405160405180910390a45050565b6000611720826115e8565b61175f576040517f08c379a0000000000000000000000000000000000000000000000000000000008152600401611756906135d7565b60405180910390fd5b600061176a83610a26565b90508073ffffffffffffffffffffffffffffffffffffffff168473ffffffffffffffffffffffffffffffffffffffff1614806117d957508373ffffffffffffffffffffffffffffffffffffffff166117c1846105bc565b73ffffffffffffffffffffffffffffffffffffffff16145b806117ea57506117e98185611451565b5b91505092915050565b8273ffffffffffffffffffffffffffffffffffffffff1661181382610a26565b73ffffffffffffffffffffffffffffffffffffffff1614611869576040517f08c379a0000000000000000000000000000000000000000000000000000000008152600401611860906136d7565b60405180910390fd5b600073ffffffffffffffffffffffffffffffffffffffff168273ffffffffffffffffffffffffffffffffffffffff1614156118d9576040517f08c379a00000000000000000000000000000000000000000000000000000000081526004016118d090613577565b60405180910390fd5b6118e4838383612085565b6118ef60008261165c565b6001600360008573ffffffffffffffffffffffffffffffffffffffff1673ffffffffffffffffffffffffffffffffffffffff168152602001908152602001600020600082825461193f9190613912565b925050819055506001600360008473ffffffffffffffffffffffffffffffffffffffff1673ffffffffffffffffffffffffffffffffffffffff16815260200190815260200160002060008282546119969190613831565b92505081905550816002600083815260200190815260200160002060006101000a81548173ffffffffffffffffffffffffffffffffffffffff021916908373ffffffffffffffffffffffffffffffffffffffff160217905550808273ffffffffffffffffffffffffffffffffffffffff168473ffffffffffffffffffffffffffffffffffffffff167fddf252ad1be2c89b69c2b068fc378daa952ba7f163c4a11628f55a4df523b3ef60405160405180910390a4505050565b60606000821415611a97576040518060400160405280600181526020017f30000000000000000000000000000000000000000000000000000000000000008152509050611bf7565b600082905060005b60008214611ac9578080611ab290613a3b565b915050600a82611ac29190613887565b9150611a9f565b60008167ffffffffffffffff811115611b0b577f4e487b7100000000000000000000000000000000000000000000000000000000600052604160045260246000fd5b6040519080825280601f01601f191660200182016040528015611b3d5781602001600182028036833780820191505090505b5090505b60008514611bf057600182611b569190613912565b9150600a85611b659190613a84565b6030611b719190613831565b60f81b818381518110611bad577f4e487b7100000000000000000000000000000000000000000000000000000000600052603260045260246000fd5b60200101907effffffffffffffffffffffffffffffffffffffffffffffffffffffffffffff1916908160001a905350600a85611be99190613887565b9450611b41565b8093505050505b919050565b600081604051602001611c0f919061323e565b6040516020818303038152906040528051906020012060001c9050919050565b600081600001549050919050565b611c488484846117f3565b611c548484848461208a565b611c93576040517f08c379a0000000000000000000000000000000000000000000000000000000008152600401611c8a90613537565b60405180910390fd5b50505050565b606060405180602001604052806000815250905090565b6060611cbb826115e8565b611cfa576040517f08c379a0000000000000000000000000000000000000000000000000000000008152600401611cf1906136f7565b60405180910390fd5b6000611d04611c99565b90506000815111611d245760405180602001604052806000815250611d4f565b80611d2e84611a4f565b604051602001611d3f929190613255565b6040516020818303038152906040525b915050919050565b60606000825190506000811415611d805760405180602001604052806000815250915050611f10565b60006003600283611d919190613831565b611d9b9190613887565b6004611da791906138b8565b90506000602082611db89190613831565b67ffffffffffffffff811115611df7577f4e487b7100000000000000000000000000000000000000000000000000000000600052604160045260246000fd5b6040519080825280601f01601f191660200182016040528015611e295781602001600182028036833780820191505090505b5090506000604051806060016040528060408152602001613d2d604091399050600181016020830160005b86811015611ecd5760038101905062ffffff818a015116603f8160121c168401518060081b905060ff603f83600c1c1686015116810190508060081b905060ff603f8360061c1686015116810190508060081b905060ff603f831686015116810190508060e01b90508084526004840193505050611e54565b506003860660018114611ee75760028114611ef757611f02565b613d3d60f01b6002830352611f02565b603d60f81b60018303525b508484525050819450505050505b919050565b611f2f828260405180602001604052806000815250612221565b5050565b611f3c826115e8565b611f7b576040517f08c379a0000000000000000000000000000000000000000000000000000000008152600401611f7290613657565b60405180910390fd5b80600660008481526020019081526020016000209080519060200190611fa292919061245d565b505050565b6001816000016000828254019250508190555050565b612057838383604051602401611fd5939291906134f9565b6040516020818303038152906040527fe3849f79000000000000000000000000000000000000000000000000000000007bffffffffffffffffffffffffffffffffffffffffffffffffffffffff19166020820180517bffffffffffffffffffffffffffffffffffffffffffffffffffffffff838183161783525050505061205c565b505050565b60008151905060006a636f6e736f6c652e6c6f679050602083016000808483855afa5050505050565b505050565b60006120ab8473ffffffffffffffffffffffffffffffffffffffff1661227c565b15612214578373ffffffffffffffffffffffffffffffffffffffff1663150b7a026120d4611654565b8786866040518563ffffffff1660e01b81526004016120f69493929190613447565b602060405180830381600087803b15801561211057600080fd5b505af192505050801561214157506040513d601f19601f8201168201806040525081019061213e91906127a1565b60015b6121c4573d8060008114612171576040519150601f19603f3d011682016040523d82523d6000602084013e612176565b606091505b506000815114156121bc576040517f08c379a00000000000000000000000000000000000000000000000000000000081526004016121b390613537565b60405180910390fd5b805181602001fd5b63150b7a0260e01b7bffffffffffffffffffffffffffffffffffffffffffffffffffffffff1916817bffffffffffffffffffffffffffffffffffffffffffffffffffffffff191614915050612219565b600190505b949350505050565b61222b838361228f565b612238600084848461208a565b612277576040517f08c379a000000000000000000000000000000000000000000000000000000000815260040161226e90613537565b60405180910390fd5b505050565b600080823b905060008111915050919050565b600073ffffffffffffffffffffffffffffffffffffffff168273ffffffffffffffffffffffffffffffffffffffff1614156122ff576040517f08c379a00000000000000000000000000000000000000000000000000000000081526004016122f690613677565b60405180910390fd5b612308816115e8565b15612348576040517f08c379a000000000000000000000000000000000000000000000000000000000815260040161233f90613557565b60405180910390fd5b61235460008383612085565b6001600360008473ffffffffffffffffffffffffffffffffffffffff1673ffffffffffffffffffffffffffffffffffffffff16815260200190815260200160002060008282546123a49190613831565b92505081905550816002600083815260200190815260200160002060006101000a81548173ffffffffffffffffffffffffffffffffffffffff021916908373ffffffffffffffffffffffffffffffffffffffff160217905550808273ffffffffffffffffffffffffffffffffffffffff16600073ffffffffffffffffffffffffffffffffffffffff167fddf252ad1be2c89b69c2b068fc378daa952ba7f163c4a11628f55a4df523b3ef60405160405180910390a45050565b82805461246990613a09565b90600052602060002090601f01602090048101928261248b57600085556124d2565b82601f106124a457805160ff19168380011785556124d2565b828001600101855582156124d2579182015b828111156124d15782518255916020019190600101906124b6565b5b5090506124df91906124e3565b5090565b5b808211156124fc5760008160009055506001016124e4565b5090565b600061251361250e846137be565b61378d565b90508281526020810184848401111561252b57600080fd5b6125368482856139c7565b509392505050565b60008135905061254d81613b82565b92915050565b60008135905061256281613b99565b92915050565b60008135905061257781613bb0565b92915050565b60008151905061258c81613bb0565b92915050565b600082601f8301126125a357600080fd5b81356125b3848260208601612500565b91505092915050565b6000813590506125cb81613bc7565b92915050565b6000602082840312156125e357600080fd5b60006125f18482850161253e565b91505092915050565b6000806040838503121561260d57600080fd5b600061261b8582860161253e565b925050602061262c8582860161253e565b9150509250929050565b60008060006060848603121561264b57600080fd5b60006126598682870161253e565b935050602061266a8682870161253e565b925050604061267b868287016125bc565b9150509250925092565b6000806000806080858703121561269b57600080fd5b60006126a98782880161253e565b94505060206126ba8782880161253e565b93505060406126cb878288016125bc565b925050606085013567ffffffffffffffff8111156126e857600080fd5b6126f487828801612592565b91505092959194509250565b6000806040838503121561271357600080fd5b60006127218582860161253e565b925050602061273285828601612553565b9150509250929050565b6000806040838503121561274f57600080fd5b600061275d8582860161253e565b925050602061276e858286016125bc565b9150509250929050565b60006020828403121561278a57600080fd5b600061279884828501612568565b91505092915050565b6000602082840312156127b357600080fd5b60006127c18482850161257d565b91505092915050565b6000602082840312156127dc57600080fd5b60006127ea848285016125bc565b91505092915050565b6127fc81613946565b82525050565b61280b81613958565b82525050565b600061281c826137ee565b6128268185613804565b93506128368185602086016139d6565b61283f81613b71565b840191505092915050565b6000612855826137f9565b61285f8185613815565b935061286f8185602086016139d6565b61287881613b71565b840191505092915050565b600061288e826137f9565b6128988185613826565b93506128a88185602086016139d6565b80840191505092915050565b60006128c1603283613815565b91507f4552433732313a207472616e7366657220746f206e6f6e20455243373231526560008301527f63656976657220696d706c656d656e74657200000000000000000000000000006020830152604082019050919050565b6000612927601c83613815565b91507f4552433732313a20746f6b656e20616c7265616479206d696e746564000000006000830152602082019050919050565b6000612967600a83613826565b91507f54484952445f574f5244000000000000000000000000000000000000000000006000830152600a82019050919050565b60006129a7602483613815565b91507f4552433732313a207472616e7366657220746f20746865207a65726f2061646460008301527f72657373000000000000000000000000000000000000000000000000000000006020830152604082019050919050565b6000612a0d601983613815565b91507f4552433732313a20617070726f766520746f2063616c6c6572000000000000006000830152602082019050919050565b6000612a4d603283613815565b91507f546865204e4654204c696d697420666f72207468697320636f6c6c656374696f60008301527f6e20686173206265656e207265616368656400000000000000000000000000006020830152604082019050919050565b6000612ab3600b83613826565b91507f5345434f4e445f574f52440000000000000000000000000000000000000000006000830152600b82019050919050565b6000612af3602c83613815565b91507f4552433732313a206f70657261746f7220717565727920666f72206e6f6e657860008301527f697374656e7420746f6b656e00000000000000000000000000000000000000006020830152604082019050919050565b6000612b59600d83613826565b91507f3c2f746578743e3c2f7376673e000000000000000000000000000000000000006000830152600d82019050919050565b6000612b99600183613826565b91507f20000000000000000000000000000000000000000000000000000000000000006000830152600182019050919050565b6000612bd9603883613815565b91507f4552433732313a20617070726f76652063616c6c6572206973206e6f74206f7760008301527f6e6572206e6f7220617070726f76656420666f7220616c6c00000000000000006020830152604082019050919050565b6000612c3f602a83613815565b91507f4552433732313a2062616c616e636520717565727920666f7220746865207a6560008301527f726f2061646472657373000000000000000000000000000000000000000000006020830152604082019050919050565b6000612ca5602983613815565b91507f4552433732313a206f776e657220717565727920666f72206e6f6e657869737460008301527f656e7420746f6b656e00000000000000000000000000000000000000000000006020830152604082019050919050565b6000612d0b602e83613815565b91507f45524337323155524953746f726167653a2055524920736574206f66206e6f6e60008301527f6578697374656e7420746f6b656e0000000000000000000000000000000000006020830152604082019050919050565b6000612d71600283613826565b91507f227d0000000000000000000000000000000000000000000000000000000000006000830152600282019050919050565b6000612db1602083613815565b91507f4552433732313a206d696e7420746f20746865207a65726f20616464726573736000830152602082019050919050565b6000612df1603183613815565b91507f45524337323155524953746f726167653a2055524920717565727920666f722060008301527f6e6f6e6578697374656e7420746f6b656e0000000000000000000000000000006020830152604082019050919050565b6000612e57602c83613815565b91507f4552433732313a20617070726f76656420717565727920666f72206e6f6e657860008301527f697374656e7420746f6b656e00000000000000000000000000000000000000006020830152604082019050919050565b6000612ebd602983613815565b91507f4552433732313a207472616e73666572206f6620746f6b656e2074686174206960008301527f73206e6f74206f776e00000000000000000000000000000000000000000000006020830152604082019050919050565b6000612f23602f83613815565b91507f4552433732314d657461646174613a2055524920717565727920666f72206e6f60008301527f6e6578697374656e7420746f6b656e00000000000000000000000000000000006020830152604082019050919050565b6000612f89600a83613826565b91507f7b226e616d65223a2022000000000000000000000000000000000000000000006000830152600a82019050919050565b6000612fc9602183613815565b91507f4552433732313a20617070726f76616c20746f2063757272656e74206f776e6560008301527f72000000000000000000000000000000000000000000000000000000000000006020830152604082019050919050565b600061302f600a83613826565b91507f46495253545f574f5244000000000000000000000000000000000000000000006000830152600a82019050919050565b600061306f601d83613826565b91507f646174613a6170706c69636174696f6e2f6a736f6e3b6261736536342c0000006000830152601d82019050919050565b60006130af603183613815565b91507f4552433732313a207472616e736665722063616c6c6572206973206e6f74206f60008301527f776e6572206e6f7220617070726f7665640000000000000000000000000000006020830152604082019050919050565b6000613115600583613826565b91507f434f4c4f520000000000000000000000000000000000000000000000000000006000830152600582019050919050565b6000613155608a83613826565b91507f222c20226465736372697074696f6e223a20224120636f6c6c656374696f6e2060008301527f6f662070656f706c652e20467269656e64732c206d696e696f6e732c20656e6560208301527f6d6965732c20706574732e2e2e207768617420617265207468657920746f207960408301527f6f753f222c2022696d616765223a2022646174613a696d6167652f7376672b7860608301527f6d6c3b6261736536342c000000000000000000000000000000000000000000006080830152608a82019050919050565b613229816139b0565b82525050565b613238816139ba565b82525050565b600061324a8284612883565b915081905092915050565b60006132618285612883565b915061326d8284612883565b91508190509392505050565b6000613285828b612883565b9150613291828a612883565b915061329d8289612883565b91506132a98288612883565b91506132b58287612883565b91506132c18286612883565b91506132cd8285612883565b91506132d98284612883565b91506132e482612b4c565b91508190509998505050505050505050565b60006133028286612883565b915061330d82612b8c565b91506133198285612883565b915061332482612b8c565b91506133308284612883565b9150819050949350505050565b60006133488261295a565b91506133548284612883565b915081905092915050565b600061336a82612aa6565b91506133768284612883565b915081905092915050565b600061338c82612f7c565b91506133988285612883565b91506133a382613148565b91506133af8284612883565b91506133ba82612d64565b91508190509392505050565b60006133d182613022565b91506133dd8284612883565b915081905092915050565b60006133f382613062565b91506133ff8284612883565b915081905092915050565b600061341582613108565b91506134218284612883565b915081905092915050565b600060208201905061344160008301846127f3565b92915050565b600060808201905061345c60008301876127f3565b61346960208301866127f3565b6134766040830185613220565b81810360608301526134888184612811565b905095945050505050565b60006040820190506134a860008301856127f3565b6134b56020830184613220565b9392505050565b60006020820190506134d16000830184612802565b92915050565b600060208201905081810360008301526134f1818461284a565b905092915050565b60006060820190508181036000830152613513818661284a565b90506135226020830185613220565b61352f60408301846127f3565b949350505050565b60006020820190508181036000830152613550816128b4565b9050919050565b600060208201905081810360008301526135708161291a565b9050919050565b600060208201905081810360008301526135908161299a565b9050919050565b600060208201905081810360008301526135b081612a00565b9050919050565b600060208201905081810360008301526135d081612a40565b9050919050565b600060208201905081810360008301526135f081612ae6565b9050919050565b6000602082019050818103600083015261361081612bcc565b9050919050565b6000602082019050818103600083015261363081612c32565b9050919050565b6000602082019050818103600083015261365081612c98565b9050919050565b6000602082019050818103600083015261367081612cfe565b9050919050565b6000602082019050818103600083015261369081612da4565b9050919050565b600060208201905081810360008301526136b081612de4565b9050919050565b600060208201905081810360008301526136d081612e4a565b9050919050565b600060208201905081810360008301526136f081612eb0565b9050919050565b6000602082019050818103600083015261371081612f16565b9050919050565b6000602082019050818103600083015261373081612fbc565b9050919050565b60006020820190508181036000830152613750816130a2565b9050919050565b600060208201905061376c6000830184613220565b92915050565b6000602082019050613787600083018461322f565b92915050565b6000604051905081810181811067ffffffffffffffff821117156137b4576137b3613b42565b5b8060405250919050565b600067ffffffffffffffff8211156137d9576137d8613b42565b5b601f19601f8301169050602081019050919050565b600081519050919050565b600081519050919050565b600082825260208201905092915050565b600082825260208201905092915050565b600081905092915050565b600061383c826139b0565b9150613847836139b0565b9250827fffffffffffffffffffffffffffffffffffffffffffffffffffffffffffffffff0382111561387c5761387b613ab5565b5b828201905092915050565b6000613892826139b0565b915061389d836139b0565b9250826138ad576138ac613ae4565b5b828204905092915050565b60006138c3826139b0565b91506138ce836139b0565b9250817fffffffffffffffffffffffffffffffffffffffffffffffffffffffffffffffff048311821515161561390757613906613ab5565b5b828202905092915050565b600061391d826139b0565b9150613928836139b0565b92508282101561393b5761393a613ab5565b5b828203905092915050565b600061395182613990565b9050919050565b60008115159050919050565b60007fffffffff0000000000000000000000000000000000000000000000000000000082169050919050565b600073ffffffffffffffffffffffffffffffffffffffff82169050919050565b6000819050919050565b600060ff82169050919050565b82818337600083830152505050565b60005b838110156139f45780820151818401526020810190506139d9565b83811115613a03576000848401525b50505050565b60006002820490506001821680613a2157607f821691505b60208210811415613a3557613a34613b13565b5b50919050565b6000613a46826139b0565b91507fffffffffffffffffffffffffffffffffffffffffffffffffffffffffffffffff821415613a7957613a78613ab5565b5b600182019050919050565b6000613a8f826139b0565b9150613a9a836139b0565b925082613aaa57613aa9613ae4565b5b828206905092915050565b7f4e487b7100000000000000000000000000000000000000000000000000000000600052601160045260246000fd5b7f4e487b7100000000000000000000000000000000000000000000000000000000600052601260045260246000fd5b7f4e487b7100000000000000000000000000000000000000000000000000000000600052602260045260246000fd5b7f4e487b7100000000000000000000000000000000000000000000000000000000600052604160045260246000fd5b6000601f19601f8301169050919050565b613b8b81613946565b8114613b9657600080fd5b50565b613ba281613958565b8114613bad57600080fd5b50565b613bb981613964565b8114613bc457600080fd5b50565b613bd0816139b0565b8114613bdb57600080fd5b5056fe272f3e3c7465787420783d273530252720793d273330252720636c6173733d27626173652720646f6d696e616e742d626173656c696e653d276d6964646c652720746578742d616e63686f723d276d6964646c65273e416e204e465420772f20494420257320686173206265656e206d696e74656420746f2025733c73766720786d6c6e733d27687474703a2f2f7777772e77332e6f72672f323030302f73766727207072657365727665417370656374526174696f3d27784d696e594d696e206d656574272076696577426f783d273020302033353020333530273e3c7374796c653e2e62617365207b2066696c6c3a2077686974653b20666f6e742d66616d696c793a2073657269663b20666f6e742d73697a653a20323470783b207d3c2f7374796c653e3c726563742077696474683d273130302527206865696768743d2731303025272066696c6c3d274142434445464748494a4b4c4d4e4f505152535455565758595a6162636465666768696a6b6c6d6e6f707172737475767778797a303132333435363738392b2f3c2f746578743e3c7465787420783d273530252720793d273530252720636c6173733d27626173652720646f6d696e616e742d626173656c696e653d276d6964646c652720746578742d616e63686f723d276d6964646c65273e3c2f746578743e3c7465787420783d273530252720793d273730252720636c6173733d27626173652720646f6d696e616e742d626173656c696e653d276d6964646c652720746578742d616e63686f723d276d6964646c65273ea2646970667358221220cd8a2333b7bd7b9e4095915e2762e6ef6c23804b5f2fbc20970882ced6d80afe64736f6c63430008000033",
  "linkReferences": {},
  "deployedLinkReferences": {}
}